:020000040800F2
:1000000000000220ED4800081136000819360008EB
:1000100021360008293600083136000800000000AB
:100020000000000000000000000000003936000859
:100030004736000800000000553600086336000807
:100040003D4900083D4900083D4900083D49000878
:100050003D4900083D4900083D4900083D49000868
:100060003D4900083D4900083D4900083D49000858
:100070003D4900083D4900083D4900083D49000848
:100080003D4900083D4900083D4900083D49000838
:100090003D4900083D4900083D4900083D49000828
:1000A0003D4900083D4900083D4900083D49000818
:1000B000713600083D4900083D4900083D490008E7
:1000C0003D4900083D4900083D4900083D490008F8
:1000D0003D4900083D4900083D4900083D490008E8
:1000E0003D4900083D4900083D4900083D490008D8
:1000F0003D4900083D4900083D4900083D490008C8
:100100003D4900083D4900083D4900083D490008B7
:100110003D4900083D4900083D4900083D490008A7
:10012000853600083D4900083D4900083D49000862
:100130003D4900083D4900083D4900083D49000887
:100140003D4900083D4900083D4900083D49000877
:100150003D4900083D4900083D4900083D49000867
:100160003D4900083D4900083D4900083D49000857
:100170003D4900083D4900083D49000800000000D5
:080180003D4900083D4900085B
:1001900010B5054C237833B9044B13B10448AFF3C1
:1001A00000800123237010BDC80000200000000063
:1001B000249C000808B5034B1BB103490348AFF367
:1001C000008008BD00000000CC000020249C000836
:1001D00001F0FF01102A2BDB10F0070F08D010F8F8
:1001E000013B013A8B422DD010F0070F42B3F6D1FC
:1001F000F0B441EA012141EA014122F007047FF015
:1002000000070023F0E80256083C85EA010586EA6B
:10021000010685FA47F5A3FA87F586FA47F6A5FAA7
:1002200087F68EB9EED1F0BC01F0FF0102F00702B3
:1002300032B110F8013B013A83EA010313B1F8D15E
:100240000020704701387047002D06BF354603383F
:10025000073815F0010F07D1013015F4807F02BF78
:10026000013015F4C03F0130F0BC0138704700BFC9
:1002700081F0004102E000BF83F0004330B54FEA57
:1002800041044FEA430594EA050F08BF90EA020FC4
:100290001FBF54EA000C55EA020C7FEA645C7FEA57
:1002A000655C00F0E2804FEA5454D4EB5555B8BF7A
:1002B0006D420CDD2C4480EA020281EA030382EAEB
:1002C000000083EA010180EA020281EA0303362D7D
:1002D00088BF30BD11F0004F4FEA01314FF4801C50
:1002E0004CEA113102D0404261EB410113F0004F62
:1002F0004FEA03334CEA133302D0524263EB430319
:1003000094EA050F00F0A780A4F10104D5F1200EB6
:100310000DDB02FA0EFC22FA05F2801841F1000111
:1003200003FA0EF2801843FA05F359410EE0A5F1E5
:1003300020050EF1200E012A03FA0EFC28BF4CF016
:10034000020C43FA05F3C01851EBE37101F00045CC
:1003500007D54FF0000EDCF1000C7EEB00006EEBD9
:100360000101B1F5801F1BD3B1F5001F0CD3490863
:100370005FEA30004FEA3C0C04F101044FEA4452BA
:1003800012F5800F80F09A80BCF1004F08BF5FEA41
:10039000500C50F1000041EB045141EA050130BD21
:1003A0005FEA4C0C404141EB0101013C28BFB1F533
:1003B000801FE9D291F0000F04BF01460020B1FA7E
:1003C00081F308BF2033A3F10B03B3F120020CDA51
:1003D0000C3208DD02F1140CC2F10C0201FA0CF02F
:1003E00021FA02F10CE002F11402D8BFC2F1200C94
:1003F00001FA02F120FA0CFCDCBF41EA0C0190404A
:10040000E41AA2BF01EB0451294330BD6FEA040492
:100410001F3C1CDA0C340EDC04F11404C4F120027D
:1004200020FA04F001FA02F340EA030021FA04F38F
:1004300045EA030130BDC4F10C04C4F1200220FAE6
:1004400002F001FA04F340EA0300294630BD21FA24
:1004500004F0294630BD94F0000F83F4801306BFEA
:1004600081F480110134013D4EE77FEA645C18BFDE
:100470007FEA655C29D094EA050F08BF90EA020F75
:1004800005D054EA000C04BF1946104630BD91EA6D
:10049000030F1EBF0021002030BD5FEA545C05D170
:1004A0004000494128BF41F0004130BD14F58004AF
:1004B0003CBF01F5801130BD01F0004545F0FE4123
:1004C00041F470014FF0000030BD7FEA645C1ABF58
:1004D000194610467FEA655C1CBF0B46024650EA8F
:1004E000013406BF52EA033591EA030F41F40021BB
:1004F00030BD00BF90F0000F04BF0021704730B541
:100500004FF4806404F132044FF000054FF0000115
:1005100050E700BF90F0000F04BF0021704730B5D6
:100520004FF4806404F1320410F0004548BF4042AB
:100530004FF000013EE700BF42004FEAE2014FEA00
:1005400031014FEA02701FBF12F07F4393F07F4FDB
:1005500081F06051704732F07F4208BF704793F0DE
:100560007F4F04BF41F40021704730B54FF46074F1
:1005700001F0004521F000411CE700BF50EA0102F4
:1005800008BF704730B54FF000050AE050EA01029D
:1005900008BF704730B511F0004502D5404261EB0D
:1005A00041014FF4806404F132045FEA915C3FF44E
:1005B000D8AE4FF003025FEADC0C18BF03325FEAEB
:1005C000DC0C18BF033202EBDC02C2F1200300FA9C
:1005D00003FC20FA02F001FA03FE40EA0E0021FAC1
:1005E00002F11444BDE600BF70B54FF0FF0C4CF4AF
:1005F000E06C1CEA11541DBF1CEA135594EA0C0F61
:1006000095EA0C0F00F0DEF82C4481EA030621EA9B
:100610004C5123EA4C5350EA013518BF52EA0335D6
:1006200041F4801143F4801338D0A0FB02CE4FF088
:100630000005E1FB02E506F00042E0FB03E54FF0B8
:100640000006E1FB03569CF0000F18BF4EF0010EB0
:10065000A4F1FF04B6F5007F64F5407404D25FEAAC
:100660004E0E6D4146EB060642EAC62141EA55515F
:100670004FEAC52040EA5E504FEACE2EB4F1FD0CA1
:1006800088BFBCF5E06F1ED8BEF1004F08BF5FEA1F
:10069000500E50F1000041EB045170BD06F00046D1
:1006A00046EA010140EA020081EA0301B4EB5C047E
:1006B000C2BFD4EB0C0541EA045170BD41F4801176
:1006C0004FF0000E013C00F3AB8014F1360FDEBF9B
:1006D000002001F0004170BDC4F10004203C35DA77
:1006E0000C341BDC04F11404C4F1200500FA05F3FA
:1006F00020FA04F001FA05F240EA020001F000429B
:1007000021F0004110EBD37021FA04F642EB060110
:100710005EEA430E08BF20EAD37070BDC4F10C043A
:10072000C4F1200500FA04F320FA05F001FA04F2FE
:1007300040EA020001F0004110EBD37041F10001EA
:100740005EEA430E08BF20EAD37070BDC4F12005F5
:1007500000FA05F24EEA020E20FA04F301FA05F25D
:1007600043EA020321FA04F001F0004121FA04F205
:1007700020EA020000EBD3705EEA430E08BF20EAD5
:10078000D37070BD94F0000F0FD101F0004640000F
:1007900041EB010111F4801F08BF013CF7D041EA91
:1007A000060195F0000F18BF704703F00046520095
:1007B00043EB030313F4801F08BF013DF7D043EA66
:1007C0000603704794EA0C0F0CEA135518BF95EA1C
:1007D0000C0F0CD050EA410618BF52EA4306D1D1A3
:1007E00081EA030101F000414FF0000070BD50EAC2
:1007F000410606BF1046194652EA430619D094EA4C
:100800000C0F02D150EA013613D195EA0C0F05D135
:1008100052EA03361CBF104619460AD181EA030189
:1008200001F0004141F0FE4141F470014FF0000041
:1008300070BD41F0FE4141F4780170BD70B54FF0DC
:10084000FF0C4CF4E06C1CEA11541DBF1CEA13555C
:1008500094EA0C0F95EA0C0F00F0A7F8A4EB05043E
:1008600081EA030E52EA03354FEA013100F0888035
:100870004FEA03334FF0805545EA131343EA1263FE
:100880004FEA022245EA111545EA10654FEA0026B3
:100890000EF000419D4208BF964244F1FD0404F56C
:1008A000407402D25B084FEA3202B61A65EB0305C8
:1008B0005B084FEA32024FF480104FF4002CB6EB85
:1008C000020E75EB030E22BFB61A754640EA0C0005
:1008D0005B084FEA3202B6EB020E75EB030E22BF45
:1008E000B61A754640EA5C005B084FEA3202B6EB86
:1008F000020E75EB030E22BFB61A754640EA9C0045
:100900005B084FEA3202B6EB020E75EB030E22BF14
:10091000B61A754640EADC0055EA060E18D04FEAD2
:10092000051545EA16754FEA06164FEAC30343EA72
:1009300052734FEAC2025FEA1C1CC0D111F4801F3F
:100940000BD141EA00014FF000004FF0004CB6E738
:1009500011F4801F04BF01430020B4F1FD0C88BFD7
:10096000BCF5E06F3FF6AFAEB5EB030C04BFB6EBE2
:10097000020C5FEA500C50F1000041EB045170BDD5
:100980000EF0004E4EEA113114EB5C04C2BFD4EB02
:100990000C0541EA045170BD41F480114FF0000E86
:1009A000013C90E645EA060E8DE60CEA135594EA02
:1009B0000C0F08BF95EA0C0F3FF43BAF94EA0C0F05
:1009C0000AD150EA01347FF434AF95EA0C0F7FF47A
:1009D00025AF104619462CE795EA0C0F06D152EACE
:1009E00003353FF4FDAE1046194622E750EA4106B2
:1009F00018BF52EA43067FF4C5AE50EA41047FF4C3
:100A00000DAF52EA43057FF4EBAE12E74FF0FF3C27
:100A100006E000BF4FF0010C02E000BF4FF0010CF8
:100A20004DF804CD4FEA410C7FEA6C5C4FEA430C71
:100A300018BF7FEA6C5C1BD001B050EA410C0CBFC0
:100A400052EA430C91EA030F02BF90EA020F002022
:100A5000704710F1000F91EA030F58BF994208BF89
:100A600090422CBFD8176FEAE37040F00100704746
:100A70004FEA410C7FEA6C5C02D150EA013C07D19D
:100A80004FEA430C7FEA6C5CD6D152EA033CD3D0E8
:100A90005DF8040B704700BF8446104662468C46E2
:100AA0001946634600E000BF01B5FFF7B7FF002815
:100AB00048BF10F1000F01BD4DF808EDFFF7F4FF3E
:100AC0000CBF012000205DF808FB00BF4DF808EDC9
:100AD000FFF7EAFF34BF012000205DF808FB00BFEC
:100AE0004DF808EDFFF7E0FF94BF012000205DF80E
:100AF00008FB00BF4DF808EDFFF7CEFF94BF0120C3
:100B000000205DF808FB00BF4DF808EDFFF7C4FFBB
:100B100034BF012000205DF808FB00BF4FEA410C04
:100B20007FEA6C5C02D150EA013C0AD14FEA430CE7
:100B30007FEA6C5C02D152EA033C02D14FF0000024
:100B400070474FF0010070474A0011D212F50012B1
:100B500011D20DD56FF47873B3EB62520ED44FEA15
:100B6000C12343F0004343EA505323FA02F0704795
:100B70004FF00000704750EA013002D14FF0FF30D3
:100B800070474FF00000704753B94AB9002908BFB9
:100B900000281CBF4FF0FF314FF0FF3000F06AB962
:100BA000ADF1080C6DE904CE00F006F8DDF804E0C4
:100BB000DDE9022304B070472DE9F047089D0C469B
:100BC000002B4ED194468C458646B2FA82F262D909
:100BD0004AB1C2F12003914020FA03F30CFA02FC5F
:100BE000194300FA02FE4FEA1C471FFA8CF6B1FBCC
:100BF000F7F44FEA1E4307FB141143EA014304FBD9
:100C000006F199420AD91CEB030304F1FF3080F08E
:100C10001281994240F20F81023C6344591A1FFA33
:100C20008EF3B1FBF7F007FB101143EA014300FB21
:100C300006F69E420AD91CEB030300F1FF3180F057
:100C4000FC809E4240F2F980634402389B1B40EADC
:100C5000044000211DB1D3400022C5E90032BDE8A7
:100C6000F0878B4205D90DB1C5E900010021084686
:100C7000F5E7B3FA83F1002946D1A34202D39042AB
:100C8000C0F0F080861A64EB03030120002DE6D04B
:100C9000C5E90063E3E7002A40F09080A1EB0C0473
:100CA0004FEA1C481FFA8CF70121B4FBF8F64FEA13
:100CB0001E4308FB164443EA044307FB06F0984230
:100CC00008D91CEB030306F1FF3402D2984200F26C
:100CD000CD8026461C1A1FFA8EF3B4FBF8F008FBF1
:100CE000104443EA044300FB07F79F4208D91CEB7A
:100CF000030300F1FF3402D29F4200F2B08020468D
:100D0000DB1B40EA0640A5E7C1F120068B4022FA32
:100D100006F71F4320FA06FC04FA01F343EA0C032A
:100D2000F44000FA01F8380C4FEA1349B4FBF0FE26
:100D30001FFA87FC00FB1E4449EA04440EFB0CF931
:100D4000A14502FA01F20AD93C190EF1FF3A80F0EE
:100D50008480A14540F28180AEF1020E3C44A4EBB8
:100D600009041FFA83F9B4FBF0F300FB134449EACA
:100D7000044403FB0CFCA44507D93C1903F1FF30E4
:100D800067D2A44565D9023B3C4443EA0E40A0FB30
:100D90000293A4EB0C049C42CE469C4651D34ED009
:100DA00055B1B8EB0E0364EB0C0404FA06F6CB4025
:100DB0001E43CC40C5E90064002150E7C2F1200386
:100DC00020FA03F10CFA02FC24FA03F394400C43DA
:100DD0004FEA1C4800FA02FE1FFA8CF7B3FBF8F04A
:100DE00008FB1031230C43EA014300FB07F1994251
:100DF00008D91CEB030300F1FF362CD299422AD903
:100E0000023863445B1AA4B2B3FBF8F108FB113358
:100E100044EA034401FB07F3A34208D91CEB040492
:100E200001F1FF3613D2A34211D902396444E41A06
:100E300041EA004139E70446F0E6084606E7C845BE
:100E4000AED2B9EB020E63EB070C0138A8E73146CE
:100E5000EDE7034699E73046D4E7D6467FE763449B
:100E600002384DE70646234608460FE7023E634434
:100E700030E700BF704700BF80B584B000AF3B468D
:100E800000221A605A609A60DA603D4B3D4A1A604F
:100E90003B4B00225A603A4B00229A60384B0122A9
:100EA0001A61374B00221A76354B002283F8202036
:100EB000334B0022DA62324B334A9A62304B0022C3
:100EC000DA602F4B0522DA612D4B002283F83020A7
:100ED0002B4B01225A612A4803F0C8FD0346002B20
:100EE00001D001F0DBFB08233B6001237B60002382
:100EF000BB603B461946224803F0FCFD0346002B2D
:100F000001D001F0CBFB09233B6002237B603B4611
:100F100019461B4803F0EEFD0346002B01D001F0FB
:100F2000BDFB0A233B6003237B603B461946144804
:100F300003F0E0FD0346002B01D001F0AFFB0B23D3
:100F40003B6004237B603B4619460D4803F0D2FD0D
:100F50000346002B01D001F0A1FB0C233B600523CD
:100F60007B603B461946064803F0C4FD0346002B50
:100F700001D001F093FB00BF1037BD4680BD00BF1C
:100F8000E4000020002001400100000F80B58AB07D
:100F900000AF786007F1140300221A605A609A606B
:100FA000DA601A617B681B683C4A934271D1002366
:100FB0003B613B4B5B6C3A4A43F480735364384B60
:100FC0005B6C03F480733B613B690023FB60344B33
:100FD0001B6B334A43F004031363314B1B6B03F069
:100FE0000403FB60FB680023BB602D4B1B6B2C4A8A
:100FF00043F0020313632A4B1B6B03F00203BB6035
:10100000BB6807237B610323BB610023FB6107F1FE
:1010100014031946234804F087FB03237B61032351
:10102000BB610023FB6107F1140319461E4804F05D
:101030007BFB1E4B1E4A1A601C4B00225A601B4B46
:1010400000229A60194B0022DA60184B4FF480623C
:101050001A61164B4FF400625A61144B4FF4005260
:101060009A61124B4FF48072DA61104B00221A62BF
:101070000E4B00225A620D4804F06CF80346002B18
:1010800001D001F00BFB7B68084A9A63074A7B6832
:10109000936300BF2837BD4680BD00BF00200140DC
:1010A0000038024000080240000402402C010020E9
:1010B0001064024080B500AF00F03CF800BF80BD76
:1010C00080B588B004AF0346FB800023FB73FA8829
:1010D0000A2302930123019307F10F0300931023C6
:1010E000A021044804F02CFFFB7B18461037BD46B6
:1010F00080BD00BFE001002080B586B004AF03468C
:101100000A46FB8013467B71FA880A230293012367
:1011100001937B1D00931023A021054804F016FEC7
:10112000052003F07FFC00BF0837BD4680BD00BF2F
:10113000E001002080B582B000AF4FF6FF70FFF7EE
:10114000BFFF0346FB71FB79552B01D1002310E053
:1011500055214FF6FF70FFF7CFFF4FF6FF70FFF7F7
:10116000AFFF0346FB71FB79552B01D1002300E053
:10117000012318460837BD4680BD90B583B000AF47
:1011800003463960FB801346BB800DE0FB885A1C88
:10119000FA803C68621C3A601846FFF791FF0346EC
:1011A0002370BB88013BBB80BB88002BEED100BF06
:1011B00000BF0C37BD4690BD80B582B000AF03467E
:1011C0003960FB801346BB800CE03B681A78FB88D3
:1011D00011461846FFF790FFFB880133FB803B6800
:1011E00001333B60BB885A1EBA80002BEDD100BF93
:1011F00000BF0837BD4680BD80B500AF0122082181
:10120000024804F045FC00BF80BD00BF000C024056
:1012100080B582B000AF00237B600C4B1B6B0B4A88
:1012200043F480031363094B1B6B03F480037B605F
:101230007B6800220021382003F055FF382003F09E
:101240006EFF00BF0837BD4680BD00BF00380240BA
:1012500080B58EB000AF07F11C0300221A605A60FF
:101260009A60DA601A615A619A613B4600221A60FC
:101270005A609A60DA601A615A619A612F4B4FF096
:1012800020421A602D4B2E4A5A602C4B00229A6045
:101290002A4B0022DA60294B00221A61274B1022C8
:1012A0005A61264B00229A61244B0022DA61234BBB
:1012B00000221A62214B00225A62204B4FF48052C6
:1012C0009A621E4B0022DA621C4B4FF480421A6372
:1012D0001A4B00225A63194B00229A63174B0022C3
:1012E0005A640F23FB610F233B623C237B62002384
:1012F000BB621023FB6211233B6300237B63082343
:101300003B600F237B600923BB600023FB6010233D
:101310003B6111237B610023BB613A4607F11C034B
:101320001946064806F0A2FA0346002B01D001F048
:10133000B5F900BF3837BD4680BD00BF8C01002025
:10134000040100A080B586B000AF3B1D00221A60EA
:101350005A609A60DA601A611C4B1B68002B31D10D
:101360001A4B01221A6000233B60194B9B6B184AF1
:1013700043F001039363164B9B6B03F001033B6047
:101380003B684FF688737B600223BB600023FB60E1
:1013900003233B610C237B613B1D19460D4804F080
:1013A000C3F94CF2B3737B600223BB600023FB6084
:1013B00003233B610C237B613B1D1946064804F067
:1013C000B3F900E000BF1837BD4680BDDC01002046
:1013D0000038024000100240000C024080B582B08C
:1013E00000AF7860FFF7AEFF00BF0837BD4680BD95
:1013F00080B58EB000AF07F1240300221A605A6056
:101400009A60DA601A6100233B627E4B1B6B7D4A57
:1014100043F0100313637B4B1B6B03F010033B6221
:101420003B6A0023FB61774B1B6B764A43F0040356
:101430001363744B1B6B03F00403FB61FB69002314
:10144000BB61704B1B6B6F4A43F0200313636D4B02
:101450001B6B03F02003BB61BB6900237B61694BFD
:101460001B6B684A43F080031363664B1B6B03F0EE
:1014700080037B617B6900233B61624B1B6B614A8C
:1014800043F0010313635F4B1B6B03F001033B61EC
:101490003B690023FB605B4B1B6B5A4A43F0020322
:1014A0001363584B1B6B03F00203FB60FB680023C4
:1014B000BB60544B1B6B534A43F008031363514BFF
:1014C0001B6B03F00803BB60BB6800237B604D4BC4
:1014D0001B6B4C4A43F0400313634A4B1B6B03F0F6
:1014E00040037B607B6800227021474804F0D0FAFB
:1014F00000224FF40851454804F0CAFA00224FF484
:10150000E071434804F0C4FA00224FF4807141486E
:1015100004F0BEFA002208213F4804F0B9FA702313
:101520007B620123BB620023FB6200233B6307F164
:1015300024031946344804F0F7F84FF408537B624B
:101540000123BB620023FB6200233B6307F12403FA
:1015500019462E4804F0E8F8C0237B620023BB62E2
:101560000023FB6207F1240319462A4804F0DCF843
:1015700030237B620023BB620023FB6207F124035C
:101580001946224804F0D0F84FF4E0737B6201233F
:10159000BB620023FB6200233B6307F1240319466F
:1015A0001B4804F0C1F84FF488537B620023BB62F0
:1015B0000123FB6207F124031946144804F0B4F830
:1015C0004FF480737B620123BB620023FB62002324
:1015D0003B6307F1240319460E4804F0A5F80823DD
:1015E0007B620123BB620023FB6200233B6307F1A4
:1015F00024031946084804F097F800BF3837BD4661
:1016000080BD00BF003802400010024000080240C8
:101610000018024000000240000C024080B500AFFC
:10162000124B134A1A60114B124A5A600F4B002298
:101630009A600E4B0022DA600C4B4FF480421A6124
:101640000A4B00225A61094B00229A61074B002283
:10165000DA61064B00221A62044804F033FA0346AA
:10166000002B01D001F01AF800BF80BDE00100207E
:1016700000540040A086010080B58AB000AF7860B9
:1016800007F1140300221A605A609A60DA601A6146
:101690007B681B68194A93422BD100233B61184B8E
:1016A0001B6B174A43F002031363154B1B6B03F0CC
:1016B00002033B613B69C0237B611223BB610023B2
:1016C000FB6103233B6204237B6207F11403194689
:1016D0000C4804F029F80023FB60094B1B6C084AF6
:1016E00043F400131364064B1B6C03F40013FB60FC
:1016F000FB6800BF2837BD4680BD00BF00540040D6
:10170000003802400004024080B483B000AF0346BA
:10171000FB80044AFB88138000BF0C37BD465DF890
:10172000047B7047FEFF0F6080B483B000AF0346B8
:10173000FB80044AFB88538000BF0C37BD465DF830
:10174000047B7047FEFF0F6080B483B000AF064B90
:101750005B889BB2FB80FB889BB218460C37BD466A
:101760005DF8047B704700BFFEFF0F6090B583B04B
:1017700000AF0446084611461A462346FB8003463E
:10178000BB800B467B8013463B802A20FFF7BCFFC3
:10179000FB881B0A9BB21846FFF7C6FFFB88DBB22B
:1017A0009BB21846FFF7C0FF7B881B0A9BB2184606
:1017B000FFF7BAFF7B88DBB29BB21846FFF7B4FF96
:1017C0002B20FFF7A1FFBB881B0A9BB21846FFF72F
:1017D000ABFFBB88DBB29BB21846FFF7A5FF3B8887
:1017E0001B0A9BB21846FFF79FFF3B88DBB29BB2F8
:1017F0001846FFF799FF2C20FFF786FF00BF0C3734
:10180000BD4690BD80B584B000AF0346FB80154B4C
:101810001B88013B9AB2134B5B88013B9BB20021B2
:101820000020FFF7A3FF0023FB8111E00023BB8111
:1018300006E0FB881846FFF777FFBB890133BB81C1
:10184000084B5B88BA899A42F3D3FB890133FB8149
:10185000044B1B88FA899A42E8D300BF00BF1037B7
:10186000BD4680BD3402002090B585B000AF04466F
:10187000084611461A462346FB800346BB800B46AA
:101880007B8013463B807B88013B9AB23B88013BBF
:101890009BB2B988F888FFF769FFBB88FB8110E02D
:1018A000FB88BB8106E03B8C1846FFF73DFFBB89F8
:1018B0000133BB81BA897B889A42F4D3FB89013317
:1018C000FB81FA893B889A42EAD300BF00BF1437F4
:1018D000BD4690BD80B582B000AF0346FB800B468D
:1018E000BB8013467B80BB88FA88B988F888FFF7ED
:1018F0003DFF7B881846FFF717FF00BF0837BD463E
:1019000080BD90B58DB000AF0446084611461A461A
:101910002346FB800346BB800B467B8013463B80FF
:101920000023BB6200237B627A88FB88D31A3B6268
:101930003A88BB88D31AFB61FB88FB60BB88BB601D
:101940003B6A002B02DD01237B610BE03B6A002B2D
:1019500002D100237B6105E04FF0FF337B613B6ADE
:101960005B423B62FB69002B02DD01233B610BE024
:10197000FB69002B02D100233B6105E04FF0FF33F0
:101980003B61FB695B42FB613A6AFB699A4202DD9B
:101990003B6ABB6101E0FB69BB610023FB852BE077
:1019A000FB689BB2BA6891B2B7F840201846FFF7BF
:1019B00091FFBA6A3B6A1344BB627A6AFB691344BB
:1019C0007B62BA6ABB699A4207DDBA6ABB69D31AFD
:1019D000BB62FA687B691344FB607A6ABB699A420E
:1019E00007DD7A6ABB69D31A7B62BA683B69134424
:1019F000BB60FB8D0133FB85FB8DBA699A42CFDA60
:101A000000BF00BF3437BD4690BD000090B587B021
:101A100000AF0446084611461A462346FB8003469B
:101A2000BB800B46FB7013463B8000237B75FB8815
:101A30003B8297F82C305B08FB73FB7BDB08DBB247
:101A40001A46FB7B03F00703DBB2002B14BF012314
:101A50000023DBB213449AB297F82C309BB212FBEE
:101A600003F3BB81FB78203BFB70FB7B9AB2FB88C6
:101A700013449BB2013B9CB297F82C309AB2BB88BE
:101A800013449BB2013B9BB2B988F8882246FFF70A
:101A90006DFE00237B827AE097F82C300C2B28D047
:101AA00097F82C30102B08D1FA787B8A3C49120128
:101AB0000A4413441B78FB751BE097F82C30182B55
:101AC0000BD1FA78798A374813465B0013441B011F
:101AD00003440B441B78FB750BE097F82C30202B4C
:101AE0005AD1FA787B8A304992010A4413441B7810
:101AF000FB750023BB7544E097F83030002B20D1F4
:101B0000FA7DBB7D42FA03F303F00103002B04D0FE
:101B10003B881846FFF708FE03E03B8D1846FFF7A9
:101B200003FE7B7D01337B757B7DFA7BB3FBF2F19A
:101B300001FB02F29B1ADBB2002B1FD100237B7545
:101B400022E0FA7DBB7D42FA03F303F00103002B90
:101B500005D03A88B988FB881846FFF7BBFEFB889A
:101B60000133FB80FA883B8AD21AFB7B9A4205D16B
:101B70003B8AFB80BB880133BB8005E0BB7D013322
:101B8000BB75BB7D072BB7D97B8A01337B827A8AF1
:101B9000BB899A4280D300E000BF1C37BD4690BD90
:101BA000249D000814A30008E4B4000880B483B0A6
:101BB00000AF0346FB71FB791B09DBB203F00303A3
:101BC000DBB2002B07D00A4B4FF4A0721A80084BEF
:101BD000F0225A8006E0064BF0221A80044B4FF4A4
:101BE000A0725A8000BF0C37BD465DF8047B704779
:101BF0003402002080B500AF00224FF40051AA4803
:101C000003F046FF4FF4FA7002F00CFF01224FF48C
:101C10000051A54803F03CFF4FF4FA7002F002FFB8
:101C20000020FFF7C3FFD320FFF76EFDFFF78CFD09
:101C300003461A469D4B9A80FFF786FD03461A46D7
:101C40009A4B9A80FFF780FD03461A46974B9A807D
:101C5000964B9B881B029AB2944B9A80FFF774FDB7
:101C600003461A46914B9B8813439AB28F4B9A8036
:101C7000CF20FFF749FD0020FFF756FDC120FFF7F9
:101C800053FD3020FFF750FDED20FFF73DFD6420B0
:101C9000FFF74AFD0320FFF747FD1220FFF744FD41
:101CA0008120FFF741FDE820FFF72EFD8520FFF79B
:101CB0003BFD1020FFF738FD7A20FFF735FDCB20E4
:101CC000FFF722FD3920FFF72FFD2C20FFF72CFD19
:101CD0000020FFF729FD3420FFF726FD0220FFF743
:101CE00023FDF720FFF710FD2020FFF71DFDEA2060
:101CF000FFF70AFD0020FFF717FD0020FFF714FD96
:101D0000C020FFF701FD1B20FFF70EFDC120FFF7EC
:101D1000FBFC0120FFF708FDC520FFF7F5FC302094
:101D2000FFF702FD3020FFF7FFFCC720FFF7ECFCB8
:101D3000B720FFF7F9FC3620FFF7E6FC0820FFF795
:101D4000F3FC3A20FFF7E0FC5520FFF7EDFCB12053
:101D5000FFF7DAFC0020FFF7E7FC1A20FFF7E4FCAE
:101D6000B620FFF7D1FC0A20FFF7DEFCA220FFF728
:101D7000DBFCF220FFF7C8FC0020FFF7D5FC262093
:101D8000FFF7C2FC0120FFF7CFFCE020FFF7BCFC0F
:101D90000F20FFF7C9FC2A20FFF7C6FC2820FFF719
:101DA000C3FC0820FFF7C0FC0E20FFF7BDFC082095
:101DB000FFF7BAFC5420FFF7B7FCA920FFF7B4FCEB
:101DC0004320FFF7B1FC0A20FFF7AEFC0F20FFF71E
:101DD000ABFC0020FFF7A8FC0020FFF7A5FC0020CB
:101DE000FFF7A2FC0020FFF79FFCE120FFF78CFC2F
:101DF0000020FFF799FC1520FFF796FC1720FFF74E
:101E000093FC0720FFF790FC1120FFF78DFC0620C4
:101E1000FFF78AFC2B20FFF787FC5620FFF784FC96
:101E20003C20FFF781FC0520FFF77EFC1020FFF728
:101E30007BFC0F20FFF778FC3F20FFF775FC3F206D
:101E4000FFF772FC0F20FFF76FFC2B20FFF75CFC05
:101E50000020FFF769FC0020FFF766FC0120FFF778
:101E600063FC3F20FFF760FC2A20FFF74DFC0020B9
:101E7000FFF75AFC0020FFF757FC0020FFF754FC47
:101E8000EF20FFF751FC1120FFF73EFC782002F015
:101E9000C9FD2920FFF738FC01224FF48071044866
:101EA00003F0F6FD00BF80BD0008024034020020B0
:101EB0000000024080B584B000AFF860B9607A607D
:101EC0003B60FB689AB27B689BB2134498B2BB68D4
:101ED0009AB23B689BB213449BB23A8B1946FFF708
:101EE000F9FCFB689AB27B689BB2D31A98B2BB68C4
:101EF0009AB23B689BB213449BB23A8B1946FFF7E8
:101F0000E9FCFB689AB27B689BB2134498B2BB6849
:101F10009AB23B689BB2D31A9BB23A8B1946FFF731
:101F2000D9FCFB689AB27B689BB2D31A98B2BB68A3
:101F30009AB23B689BB2D31A9BB23A8B1946FFF711
:101F4000C9FCFB689AB23B689BB2134498B2BB6869
:101F50009AB27B689BB213449BB23A8B1946FFF747
:101F6000B9FCFB689AB23B689BB2D31A98B2BB68C3
:101F70009AB27B689BB213449BB23A8B1946FFF727
:101F8000A9FCFB689AB23B689BB2134498B2BB6849
:101F90009AB27B689BB2D31A9BB23A8B1946FFF771
:101FA00099FCFB689AB23B689BB2D31A98B2BB68A3
:101FB0009AB27B689BB2D31A9BB23A8B1946FFF751
:101FC00089FC00BF1037BD4680BD80B58AB002AF26
:101FD000F860B9603B601346FB800023FB613B68FF
:101FE000BB613B685B00C3F103033B61BB6A002B31
:101FF0004FD029E0FB697B610AE0FB8800937B6995
:10200000FA69B968F868FFF755FF7B6901337B61AE
:102010007A69BB699A42F0DD3B69002B06DAFB69FD
:102020009A003B69134406333B610AE0FA69BB69D5
:10203000D31A9A003B6913440A333B61BB69013BE5
:10204000BB61FB690133FB61FA69BB699A42D1DD6F
:1020500023E0FB880093BB69FA69B968F868FFF769
:1020600029FF3B69002B06DAFB699A003B691344A0
:1020700006333B610AE0FA69BB69D31A9A003B69EF
:1020800013440A333B61BB69013BBB61FB6901330C
:10209000FB61FA69BB699A42DBDD00BF2037BD46B0
:1020A00080BD000090B58BB004AFBA601A460346FD
:1020B000FB810B46BB811346FB80FB89BB8200235F
:1020C000FB7548E0FB7D002B45D1FA89264B1B8828
:1020D000194697F82C305B08DBB2CB1A9A423FDCEA
:1020E000BA89214B5B88194697F82C30CB1A9A4253
:1020F00036DCBB681B78802B02D90123FB752AE0F4
:10210000BB681B780D2B0BD197F82C309AB2BB898A
:102110001344BB81BB8AFB81BB680133BB6017E002
:10212000BB681A78FC88B989F88997F8303002932F
:1021300097F82C3001933B8D00932346FFF766FC04
:1021400097F82C305B08DBB21A46FB891344FB81FD
:10215000BB680133BB60BB681B78002BB2D100E0C9
:1021600000BF1C37BD4690BD3402002080B500AFD3
:102170003F4B1B88DBB29AB23D4B1A803D4B1B682C
:102180003D4AD35C1B021AB2394B1B881BB2134366
:102190001BB29AB2364B1A80364B1B68032B47D8BA
:1021A00001A252F823F000BFB9210008D72100088E
:1021B000F5210008132200082D4B1B8843F0B003C3
:1021C0009AB22B4B1A802A4B1B8823F040039AB2F9
:1021D000274B1A802DE0264B1B8843F0D0039AB280
:1021E000234B1A80224B1B8823F020039AB2204BEA
:1021F0001A801EE01E4B1B8843F0E0039AB21C4B72
:102200001A801B4B1B8823F010039AB2184B1A80BC
:102210000FE0174B1B8843F070039AB2144B1A80DF
:10222000134B1B8823F080039AB2114B1A8000E0F5
:1022300000BF104B1B6801335A4203F0030302F046
:10224000030258BF53420B4A1360002240210B483F
:1022500003F01EFC012302220549094805F0FFF89E
:1022600001224021054803F013FC00BF80BD00BFE0
:10227000040000203C020020000000200018024062
:102280003012002080B500AF02F05AFB00F01EF8BB
:10229000FFF7AEF801F028FB01F014F9FEF7D8FFC4
:1022A000FFF7BCF901F06CFBFEF7B2FFFEF7E4FDAF
:1022B00001F0CAFA00F074F84FF6FF70FFF7A2FAC7
:1022C00002F0E0FA00F030F900BFF9E780B594B011
:1022D00000AF07F1200330220021184606F001FD6F
:1022E00007F10C0300221A605A609A60DA601A61E2
:1022F0000023BB60284B1B6C274A43F080531364B8
:10230000254B1B6C03F08053BB60BB6800237B60D4
:10231000224B1B68214A43F4804313601F4B1B6808
:1023200003F480437B607B6802233B620123FB62F2
:1023300010233B630223BB630023FB6308233B643E
:10234000A8237B640223BB640423FB6407F12003FE
:10235000184604F077FB0346002B01D000F09EF9ED
:102360000F23FB6002233B6100237B614FF4A053EA
:10237000BB614FF4A053FB6107F10C030521184624
:1023800004F0D8FD0346002B01D000F087F900BF10
:102390005037BD4680BD00BF00380240007000408D
:1023A00080B500AF00F0E8FFFEF726FFFFF722FC44
:1023B00002F058FA322000F0EDFFFA2001F006F8A2
:1023C00000BF80BD80B500AF02F066FA0346002B67
:1023D00001D1002317E002F071FA03463C2B10D91B
:1023E00002F06CFA0346B32B0BD802F073FA0346E3
:1023F0000A2B06D902F06EFA03463B2B01D80123C3
:1024000000E00023DBB2184680BD80B500AF02F0CB
:1024100043FA0346002B01D1002317E002F04EFAE5
:102420000346962B10D902F049FA0346A92B0BD884
:1024300002F050FA0346002B06D002F04BFA034696
:10244000132B01D8012300E00023DBB2184680BD26
:1024500080B500AF02F020FA0346002B01D1002323
:1024600017E002F02BFA0346962B10D902F026FA59
:102470000346A92B0BD802F02DFA0346DC2B06D914
:1024800002F028FA0346EF2B01D8012300E00023D5
:10249000DBB2184680BD80B500AF02F0FDF90346FF
:1024A000002B01D1002317E002F008FA0346002BAD
:1024B00010D002F003FA0346132B0BD802F00AFAED
:1024C00003466E2B06D902F005FA0346812B01D88C
:1024D000012300E00023DBB2184680BD80B500AFC9
:1024E00002F0DAF90346002B01D1002319E002F0D3
:1024F000E5F90346B3F5967F11D902F0DFF90346FB
:10250000B3F5A07F0BD202F0E5F903466E2B06D996
:1025100002F0E0F90346812B01D8012300E00023FB
:10252000DBB2184680BD000080B584B004AF564BC6
:102530001B68022B00F09780022B00F39C80002B7D
:1025400002D0012B51D096E04FF6FF70FFF75AF9F9
:1025500040F2FF7300933C23B4220A213C20FFF792
:1025600083F90123029318230193002300934FF46E
:102570007843464A14215A20FFF794FDFFF722FFC3
:102580000346002B79D0404B01221A604FF6FF70B2
:10259000FFF738F900F0C8FD00F066FE40F2FF7367
:1025A00000931423AA2200219620FFF75DF940F240
:1025B000FF730093F023AA22DC219620FFF754F941
:1025C00040F2FF730093822314226E210020FFF754
:1025D0004BF940F2FF73009382234FF4A0726E21F7
:1025E0004FF49670FFF740F947E002F055F90346C3
:1025F000002B22D0FFF709FF0346002B03D0244B0A
:1026000001221A8019E0FFF723FF0346002B03D0B5
:102610001F4B01225A8110E0FFF73DFF0346002BBC
:1026200003D01B4B01225A8007E0FFF757FF0346F8
:10263000002B02D0164B0122DA8000F015FE154B5C
:102640001B88012B04D1134B00221A8000F026FDB9
:10265000114B1B88012B12D10B4B02221A600E4B1F
:1026600000221A800BE04FF6FF70FFF7CBF8064B05
:1026700000221A6004E000BF02E000BF00E000BFDB
:1026800000BFBD4680BD00BF400200203C9C00084A
:10269000480200202A1200205402002080B400AF1B
:1026A00072B600BF00BFFDE790B583B002AF8F4B9D
:1026B0009B69032B00F2148101A252F823F000BFA2
:1026C00059280008D927000851270008D1260008FA
:1026D000864BDB6A98B2854B1B6B99B2834BDB6AE6
:1026E0009BB209339AB2814B1B6B9BB209339BB2ED
:1026F0004FF478440094FFF7B7F87C4BDB6A98B24C
:102700007A4B1B6B99B2794BDB6A9BB204339AB25A
:10271000764B1B6B9BB204339BB200240094FFF7F3
:10272000A3F8724BDB6A9BB2053398B26F4B1B6BFD
:1027300099B26E4BDB6A9BB209339AB26B4B1B6B3F
:102740009BB204339BB200240094FFF78DF8C8E0DD
:10275000664BDB6A98B2654B1B6B99B2634BDB6AC5
:102760009BB209339AB2614B1B6B9BB209339BB28C
:102770004FF478440094FFF777F85C4BDB6A98B22B
:102780005A4B1B6B9BB2053399B2584BDB6A9BB219
:1027900004339AB2554B1B6B9BB209339BB2002496
:1027A0000094FFF761F8514BDB6A9BB2053398B296
:1027B0004E4B1B6B9BB2053399B24C4BDB6A9BB201
:1027C00009339AB2494B1B6B9BB209339BB200246D
:1027D0000094FFF749F884E0444BDB6A98B2434B1E
:1027E0001B6B99B2414BDB6A9BB209339AB23F4BE8
:1027F0001B6B9BB209339BB24FF478440094FFF7F4
:1028000033F83A4BDB6A98B2384B1B6B99B2374BB3
:10281000DB6A9BB204339AB2344B1B6B9BB204331A
:102820009BB200240094FFF71FF8304BDB6A98B28C
:102830002E4B1B6B9BB2053399B22C4BDB6A9BB2C0
:1028400004339AB2294B1B6B9BB209339BB2002411
:102850000094FFF709F844E0244BDB6A98B2234B5D
:102860001B6B99B2214BDB6A9BB209339AB21F4BA7
:102870001B6B9BB209339BB24FF478440094FEF774
:10288000F3FF1A4BDB6A9BB2053398B2174B1B6BF5
:1028900099B2164BDB6A9BB209339AB2134B1B6B8E
:1028A0009BB204339BB200240094FEF7DDFF0F4B74
:1028B000DB6A9BB2053398B20C4B1B6B9BB20533A2
:1028C00099B20A4BDB6A9BB209339AB2074B1B6B76
:1028D0009BB209339BB200240094FEF7C5FF00E0D1
:1028E00000BF00BF0437BD4690BD00BF58020020A6
:1028F00090B589B002AF584B9B6A002B40F0A7807F
:10290000554B9B69002B03D1534B5B6898479EE066
:10291000514B01229A6100237B6191E07B69002B7E
:1029200028D14D4A7B690533DB00134407F10C02C3
:10293000043393E8030082E80300474A7B690533C8
:10294000DB0013445B68A3F10A0243497B6905334A
:10295000DB000B445A60404A7B690533DB001344BB
:102960009A683D497B690533DB000B449A60FFF7A9
:102970009BFE62E0384A7B690533DB0013443A1D55
:10298000043393E8030082E80300334A7B6905338C
:10299000DB001344043307F10C0292E8030083E8E0
:1029A000030007F10C033A1D92E8030083E80300DB
:1029B0007B69012B23D1284A7B690533DB00134453
:1029C0005B6898B2244A7B690533DB0013449B683B
:1029D00099B2214A7B690533DB0013445B689BB2E3
:1029E00009339AB21C4C7B690533DB0023449B6896
:1029F0009BB209339BB200240094FEF735FF164BBF
:102A00005B6A013B7A699A4217D1134B1C333A1D1A
:102A100092E8030083E803007B6898B2BB6899B230
:102A20007B689BB209339AB2BB689BB209339BB2F5
:102A30004FF6FF740094FEF717FF7B6901337B614B
:102A4000054B5B6A7A699A42FFF668AF00BF00BF28
:102A50001C37BD4690BD00BF5802002090B589B01C
:102A600002AF584B9B6A002B40F0A780554B9B69E7
:102A7000012B03D1534B1B6898479EE0514B00221A
:102A80009A6100237B6191E07B69002B28D14D4A3C
:102A90007B690533DB00134407F10C02043393E830
:102AA000030082E80300474A7B690533DB001344D7
:102AB0005B6803F10A0243497B690533DB000B4481
:102AC0005A60404A7B690533DB0013449A683D49EC
:102AD0007B690533DB000B449A60FFF7E5FD62E09C
:102AE000384A7B690533DB0013443A1D043393E80D
:102AF000030082E80300334A7B690533DB0013449B
:102B0000043307F10C0292E8030083E8030007F1A5
:102B10000C033A1D92E8030083E803007B69012B54
:102B200023D1284A7B690533DB0013445B6898B2E4
:102B3000244A7B690533DB0013449B6899B2214A20
:102B40007B690533DB0013445B689BB209339AB29F
:102B50001C4C7B690533DB0023449B689BB2093323
:102B60009BB200240094FEF77FFE164B5B6A013B8C
:102B70007A699A4217D1134B1C333A1D92E803002D
:102B800083E803007B6898B2BB6899B27B689BB20C
:102B900009339AB2BB689BB209339BB24FF6FF74FC
:102BA0000094FEF761FE7B6901337B61054B5B6A34
:102BB0007A699A42FFF668AF00BF00BF1C37BD4676
:102BC00090BD00BF5802002090B589B002AF584BAD
:102BD0009B6A002B40F0A780554B9B69022B03D1C9
:102BE000534BDB6898479EE0514B03229A610023C8
:102BF0007B6191E07B69002B28D14D4A7B690533CD
:102C0000DB00134407F10C02043393E8030082E86D
:102C10000300474A7B690533DB0013445A68444983
:102C20007B690533DB000B445A60414A7B690533FD
:102C3000DB0013449B68A3F10A023D497B6905331D
:102C4000DB000B449A60FFF72FFD62E0384A7B6996
:102C50000533DB0013443A1D043393E8030082E894
:102C60000300334A7B690533DB001344043307F167
:102C70000C0292E8030083E8030007F10C033A1DFD
:102C800092E8030083E803007B69012B23D1284AE3
:102C90007B690533DB0013445B6898B2244A7B6987
:102CA0000533DB0013449B6899B2214A7B690533E5
:102CB000DB0013445B689BB209339AB21C4C7B69FE
:102CC0000533DB0023449B689BB209339BB200248D
:102CD0000094FEF7C9FD164B5B6A013B7A699A4284
:102CE00017D1134B1C333A1D92E8030083E803000D
:102CF0007B6898B2BB6899B27B689BB209339AB281
:102D0000BB689BB209339BB24FF6FF740094FEF789
:102D1000ABFD7B6901337B61054B5B6A7A699A4243
:102D2000FFF668AF00BF00BF1C37BD4690BD00BFB7
:102D30005802002090B589B002AF584B9B6A002B17
:102D400040F0A780554B9B69032B03D1534B9B68E5
:102D500098479EE0514B02229A6100237B6191E0EB
:102D60007B69002B28D14D4A7B690533DB00134476
:102D700007F10C02043393E8030082E80300474A9A
:102D80007B690533DB0013445A6844497B6905338A
:102D9000DB000B445A60414A7B690533DB00134476
:102DA0009B6803F10A023D497B690533DB000B4454
:102DB0009A60FFF779FC62E0384A7B690533DB00F3
:102DC00013443A1D043393E8030082E80300334AB6
:102DD0007B690533DB001344043307F10C0292E8EE
:102DE000030083E8030007F10C033A1D92E8030097
:102DF00083E803007B69012B23D1284A7B690533D3
:102E0000DB0013445B6898B2244A7B690533DB001E
:102E100013449B6899B2214A7B690533DB00134454
:102E20005B689BB209339AB21C4C7B690533DB00AB
:102E300023449B689BB209339BB200240094FEF7A5
:102E400013FD164B5B6A013B7A699A4217D1134B0B
:102E50001C333A1D92E8030083E803007B6898B2B4
:102E6000BB6899B27B689BB209339AB2BB689BB2CC
:102E700009339BB24FF6FF740094FEF7F5FC7B69B3
:102E800001337B61054B5B6A7A699A42FFF668AF52
:102E900000BF00BF1C37BD4690BD00BF58020020D8
:102EA00080B400AF0C4BDB6A002B0CDB0A4BDB6AF7
:102EB000E62B08DC084B1B6B002B04DB064B1B6B63
:102EC000B3F59C7F01DD012300E000231846BD46D9
:102ED0005DF8047B704700BF5802002080B483B0C7
:102EE00000AF01237B6018E0124BDA6A11497B685E
:102EF0000533DB000B445B689A420BD10D4B1A6B18
:102F00000C497B680533DB000B449B689A4201D176
:102F1000012308E07B6801337B60064B5B6A7A68BB
:102F20009A42E1DB002318460C37BD465DF8047B6E
:102F3000704700BF5802002080B400AF094BDA6A26
:102F4000094B1B689A4207D1064B1A6B074B1B684B
:102F50009A4201D1012300E000231846BD465DF8E6
:102F6000047B704758020020080000200C0000205D
:102F700090B585B002AFFFF793FF0346002B03D057
:102F80002D4B01221A8054E0FFF7A8FF0346002BC7
:102F900003D0294B01221A804BE0FFF7CDFF0346F7
:102FA000002B46D0254B4FF000421A60244B4FF0C7
:102FB00000421A60234B5B6A0133224A5362214B61
:102FC0005B6A013B1F4AD2691E490533DB000B4493
:102FD0005A601C4B5B6A013B1A4A126A1949053355
:102FE000DB000B449A60174B5B6A013B154A0533C3
:102FF000DB0013445B687B60124B5B6A013B114A48
:103000000533DB0013449B683B607B6898B23B68E8
:1030100099B27B689BB209339AB23B689BB2093381
:103020009BB200240094FEF71FFC074B01221A609C
:1030300000BF0C37BD4690BD5402002008000020A0
:103040000C000020580200201000002080B500AFC6
:10305000114B9B69032B1BD801A252F823F000BF30
:10306000813000088930000871300008793000088C
:10307000094BDB6898470CE0074B9B68984708E0D2
:10308000054B5B68984704E0034B1B68984700E0DA
:1030900000BF00BF80BD00BF5802002080B500AF58
:1030A0001F4B1B88002B09D01D4B00221A801D4B83
:1030B0009B6898471B4B5B6998472FE0184B5B88D0
:1030C000002B09D0164B00225A80164B1B689847DC
:1030D000144B5B69984721E0114BDB88002B09D02A
:1030E0000F4B0022DA800F4B5B6898470D4B5B69F2
:1030F000984713E00A4B5B89002B09D0084B00224C
:103100005A81084BDB689847064B5B69984705E096
:10311000044B1B699847034B5B69984700BF80BD10
:10312000480200205802002090B585B002AF454B00
:103130001B68184605F064FC424B1B680133414A8A
:103140001360414B01221A60404B00229A623F4BB0
:103150001422DA623D4B00221A633C4B0A225A6366
:103160003A4B00229A63394B0022DA63374B002234
:103170001A6403237B6010E0344A7B680533DB006C
:10318000134400225A60314A7B680533DB00134444
:1031900000229A607B6801337B607B68B3F5FA7F1D
:1031A000EADB2A4B2A4ADA60284B2A4A1A60274B64
:1031B000294A9A60254B294A5A60244B284A1A61A9
:1031C000224B284A5A61214B03225A621F4B00228C
:1031D0009A6100233B602CE03B68002B02D1FFF793
:1031E00063FA23E0194A3B680533DB0013445B684C
:1031F00098B2164A3B680533DB0013449B6899B2CA
:10320000124A3B680533DB0013445B689BB2093309
:103210009AB20E4C3B680533DB0023449B689BB29B
:1032200009339BB200240094FEF71EFB3B68013378
:103230003B603B68022BCFDD00BF00BF0C37BD46B3
:1032400090BD00BF44020020100000205802002062
:10325000352D0008F1280008C92B00085D2A000858
:103260004D300008712F000890B585B002AF3D4B7E
:103270001B68012B71D100237B6005F0EFFB014639
:10328000394B83FB01239A10CB17D21A13465B00EC
:103290001344DB00CA1A13469B0013445B001A4612
:1032A000324B1A6005F0DAFB03465A4203F01F0363
:1032B00002F01F0258BF5342DA1D13469B0013440D
:1032C0005B001A462A4B1A6000233B6021E0294A22
:1032D0003B680533DB0013445A68244B1B689A4251
:1032E00014D1244A3B680533DB0013449A68204B11
:1032F0001B689A420AD11D4B4FF000421A601C4BCA
:103300004FF000421A6001237B6007E03B68013305
:103310003B60184B5B6A3A689A42D8DB7B68002BAB
:1033200019D1124B1B6898B2114B1B6899B20F4B05
:103330001B689BB209339AB20D4B1B689BB20933D1
:103340009BB240F2CF140094FEF78EFA054B002298
:103350001A6000BF01E000BF8DE700BF0C37BD461B
:1033600090BD00BF10000020ABAAAA2A08000020D0
:103370000C0000205802002080B500AF034804F084
:1033800071FB034804F006FB00BF80BDD41200208F
:103390008C12002080B483B000AF0346FB80084A43
:1033A000FB881380064B1A88064B1A80064B0022B6
:1033B0001A8000BF0C37BD465DF8047B704700BF24
:1033C00028120020261200202412002080B483B08E
:1033D00000AF0346FB80084AFB881380064B1A881F
:1033E000064B1A80064B00221A8000BF0C37BD46E0
:1033F0005DF8047B704700BF2E1200202C120020C5
:103400002A12002080B582B000AF78607B681B680C
:10341000B3F1804F2BD1184B1B88002B10D0164BCB
:103420001B88013B9AB2144B1A80134B1B88002B4C
:1034300006D1124B01221A80114B1A880E4B1A80AA
:10344000104B1B88002B10D00E4B1B88013B9AB2EF
:103450000C4B1A800B4B1B88002B06D10A4B012208
:103460001A800A4B1A88074B1A80FEF77FFE00BFAE
:103470000837BD4680BD00BF2C1200202A12002054
:103480002E120020261200202412002028120020D4
:1034900080B483B000AF0346FB80094B1B68002259
:1034A0005A6200BF064B1B685A6AFB889A42F9D3DE
:1034B00000BF00BF0C37BD465DF8047B704700BFFE
:1034C0008C12002080B500AF174B184A1A60164BBB
:1034D0004FF482725A60144B00229A60124B002201
:1034E000DA60114B00221A610F4B00225A610E4B19
:1034F0004FF400729A610C4B0022DA610A4B0022F1
:103500001A62094B00225A62074B00229A62064B4C
:103510000A22DA62044803F019FF0346002B01D0A7
:10352000FFF7BCF800BF80BD301200200030014022
:1035300080B58AB000AF786007F1140300221A60EA
:103540005A609A60DA601A617B681B68194A934274
:103550002BD100233B61184B5B6C174A43F480531B
:103560005364154B5B6C03F480533B613B69002350
:10357000FB60114B1B6B104A43F0020313630E4BAD
:103580001B6B03F00203FB60FB6838237B610223A3
:10359000BB610023FB6103233B6205237B6207F1D0
:1035A00014031946054802F0BFF800BF2837BD468E
:1035B00080BD00BF003001400038024000040240DE
:1035C00080B483B000AF00237B60104B5B6C0F4A6C
:1035D00043F4804353640D4B5B6C03F480437B6086
:1035E0007B6800233B60094B1B6C084A43F0805307
:1035F0001364064B1B6C03F080533B603B6800BFB9
:103600000C37BD465DF8047B704700BF00380240B0
:1036100080B400AF00BFFDE780B400AF00BFFDE79E
:1036200080B400AF00BFFDE780B400AF00BFFDE78E
:1036300080B400AF00BFFDE780B400AF00BFBD465F
:103640005DF8047B704780B400AF00BFBD465DF8F5
:10365000047B704780B400AF00BFBD465DF8047BBB
:10366000704780B500AF01F0BDF900BF80BD00001C
:1036700080B500AF024804F0BEFA00BF80BD00BFB5
:10368000D412002080B500AF024801F011FE00BF47
:1036900080BD00BF2C01002080B400AF012318467C
:1036A000BD465DF8047B704780B582B000AF78609E
:1036B000396005F065FB034616221A604FF0FF33B0
:1036C00018460837BD4680BD80B582B000AF78602F
:1036D0004FF0FF317868FFF7E7FF00BFFDE780B5E7
:1036E00086B000AFF860B9607A6000237B610AE0C1
:1036F000AFF300800146BB685A1CBA60CAB21A70A8
:103700007B6901337B617A697B689A42F0DB7B6875
:1037100018461837BD4680BD80B586B000AFF8604A
:10372000B9607A6000237B6109E0BB685A1CBA600B
:103730001B781846AFF300807B6901337B617A699F
:103740007B689A42F1DB7B6818461837BD4680BD1E
:1037500080B483B000AF78604FF0FF3318460C3769
:10376000BD465DF8047B704780B483B000AF7860DD
:1037700039603B684FF400525A60002318460C37FA
:10378000BD465DF8047B704780B483B000AF7860BD
:10379000012318460C37BD465DF8047B704780B4A2
:1037A00085B000AFF860B9607A600023184614371E
:1037B000BD465DF8047B704780B586B000AF786089
:1037C000144A154BD31A7B617B693B61134B1B6811
:1037D000002B02D1114B124A1A60104B1A687B68F9
:1037E00013443A699A4207D205F0CAFA03460C22FA
:1037F0001A604FF0FF3309E0084B1B68FB60074B72
:103800001A687B681344054A1360FB68184618372A
:10381000BD4680BD00000220000400008812002088
:10382000B814002080B400AF064BD3F88830054AA6
:1038300043F47003C2F8883000BFBD465DF8047BD6
:10384000704700BF00ED00E080B586B000AF07F123
:10385000080300221A605A609A60DA603B46002230
:103860001A605A601E4B1F4A1A601D4B53225A6041
:103870001B4B00229A601A4B4FF6FF72DA60184B0E
:1038800000221A61164B00225A61154B00229A61E0
:10389000134804F02FF80346002B01D0FEF7FEFE7C
:1038A0004FF48053BB6007F1080319460C4804F03D
:1038B0006DFB0346002B01D0FEF7F0FE00233B60BA
:1038C00000237B603B461946054804F039FF034658
:1038D000002B01D0FEF7E2FE00BF1837BD4680BDC9
:1038E0008C1200200000014080B586B000AF07F1C7
:1038F000080300221A605A609A60DA603B46002290
:103900001A605A601D4B4FF080421A601B4B40F208
:1039100047325A60194B00229A60184B6322DA60D2
:10392000164B00221A61154B00229A61134803F0CE
:10393000E1FF0346002B01D0FEF7B0FE4FF48053A9
:10394000BB6007F1080319460C4804F01FFB03464F
:10395000002B01D0FEF7A2FE00233B6000237B601A
:103960003B461946054804F0EBFE0346002B01D008
:10397000FEF794FE00BF1837BD4680BDD41200206C
:1039800080B588B000AF3B1D00221A605A609A6073
:10399000DA601A615A619A611E4B1F4A1A601D4B08
:1039A00040F247325A601B4B00229A60194B632247
:1039B000DA60184B00221A61164B00229A611548F2
:1039C00003F098FF0346002B01D0FEF767FE114875
:1039D00004F0B8F80346002B01D0FEF75FFE602329
:1039E0007B600023BB600023FB6000237B613B1DE9
:1039F00000221946074804F007FA0346002B01D0BD
:103A0000FEF74CFE034800F05BF800BF2037BD46D0
:103A100080BD00BF1C130020001C004080B586B094
:103A200000AF78607B681B68224A93420ED1002366
:103A30007B61214B5B6C204A43F0010353641E4BB6
:103A40005B6C03F001037B617B692EE07B681B6884
:103A5000B3F1804F16D100233B61174B1B6C164A04
:103A600043F001031364144B1B6C03F001033B612F
:103A70003B69002200211C2001F035FB1C2001F0D5
:103A80004EFB12E07B681B680C4A93420DD1002369
:103A9000FB60094B1B6C084A43F080031364064B20
:103AA0001B6C03F08003FB60FB6800BF1837BD464A
:103AB00080BD00BF0000014000380240001C0040F3
:103AC00080B588B000AF786007F10C0300221A605F
:103AD0005A609A60DA601A617B681B68124A9342E6
:103AE0001ED10023BB60114B1B6B104A43F0200317
:103AF00013630E4B1B6B03F02003BB60BB684FF4DA
:103B00008073FB6002233B6100237B610023BB6168
:103B10000923FB6107F10C031946054801F004FE77
:103B200000BF2037BD4680BD001C00400038024069
:103B30000014024080B584B000AF0346FB7100233F
:103B4000FB730023FB7325E097F90730002B06DA9F
:103B500001224FF40071134801F09AFF05E00022A2
:103B60004FF400710F4801F093FFFB795B00FB718C
:103B700000224FF480710C4801F08AFF0120FFF70A
:103B800087FC01224FF48071074801F081FFFB7B25
:103B90000133FB73FB7B072BD6D900BF00BF103767
:103BA000BD4680BD000802400018024080B584B0C8
:103BB00000AF0346FB710023FB730023BB8100228F
:103BC0004FF480712F4801F063FF00224FF4007121
:103BD0002D4801F05DFF002280212A4801F058FFA6
:103BE000FB791846FFF7A6FF0620FFF751FC0022DD
:103BF0004FF48071234801F04BFF0120FFF748FC90
:103C000001224FF480711F4801F042FF0120FFF7AD
:103C10003FFC00224FF480711A4801F039FF002365
:103C2000FB731FE0BB895B00BB8100224FF48071F6
:103C3000144801F02DFF0120FFF72AFC01224FF468
:103C40008071104801F024FF4FF480510E4801F0BC
:103C500007FF0346002B02D0BB890133BB81FB7BEE
:103C60000133FB73FB7B0F2BDCD9BB891B09BB81A9
:103C700001228021034801F00BFFBB891846103751
:103C8000BD4680BD001802400008024090B589B0D2
:103C900000AF0346FB7100237B830023FB830EE010
:103CA000FC8BFB791846FFF781FF03461A46630039
:103CB00020333B4423F8142CFB8B0133FB83FB8B19
:103CC000042BEDD90023FB8335E0FB8B0133BB8351
:103CD0002BE0FB8B5B0020333B4433F8142CBB8B75
:103CE0005B0020333B4433F8143C9A421AD9FB8BD7
:103CF0005B0020333B4433F8143C3B83BB8BFA8B93
:103D00005B0020333B4433F8141C530020333B4406
:103D10000A4623F8142CBB8B5B0020333B443A8BC0
:103D200023F8142CBB8B0133BB83BB8B042BD0D962
:103D3000FB8B0133FB83FB8B032BC6D900237B83D7
:103D40000123FB830BE0FB8B5B0020333B4433F808
:103D5000142C7B8B13447B83FB8B0133FB83FB8B0A
:103D6000032BF0D97B8B054AA2FB03235B083B8323
:103D70003B8B18462437BD4690BD00BFABAAAAAA0C
:103D800080B584B000AF786039600C4B1B78184662
:103D9000FFF77CFF0346FB81094B1B781846FFF7B2
:103DA00075FF0346BB817B68FA891A803B68BA8934
:103DB0001A80012318461037BD4680BD4C000020F4
:103DC0004D00002080B586B000AF7860396007F103
:103DD000120207F1140311461846FFF7D1FF0346FC
:103DE000FB75FB7D002B01D1002349E007F10E029A
:103DF00007F1100311461846FFF7C2FF0346FB7593
:103E0000FB7D002B01D100233AE03A8ABB8A9A421B
:103E100004D83B8A6333BA8A934208DABA8A3B8A67
:103E20009A422CD8BB8A63333A8A934227DBFA89B9
:103E30007B8A9A4204D8FB8963337A8A934208DAF0
:103E40007A8AFB899A421AD87B8A6333FA89934229
:103E500015DBBB8A1A463B8A1344DA0F13445B1006
:103E60009AB27B681A807B8A1A46FB891344DA0F60
:103E700013445B109AB23B681A80012300E00023D0
:103E800018461837BD4680BD90B585B002AF0346D1
:103E9000FB800B46BB8013467B80FB880C3B98B2B3
:103EA000FB880D339AB2BC88B9887B88009323467F
:103EB000FDF727FDBB880C3B99B2BB880D339CB244
:103EC000FA88F8887B8800932346FDF71AFDFB8863
:103ED000013398B2BB8801339BB27A881946FDF74B
:103EE000F9FCFB88013B98B2BB8801339BB27A880E
:103EF0001946FDF7EFFCFB88013398B2BB88013B04
:103F00009BB27A881946FDF7E5FCFB88013B98B225
:103F1000BB88013B9BB27A881946FDF7DBFCF88829
:103F2000B9887A88002300930623FEF74EF800BF75
:103F30000C37BD4690BD000080B582B000AF03468F
:103F4000FB714FF48071434801F08AFD0346002B5A
:103F500057D1FB79002B04D03F494048FFF732FF8F
:103F60003CE03D493D48FFF72DFF0346002B35D08F
:103F70003B4B93ED097A3A4B9B8907EE903AF8EE6A
:103F8000E77A27EE277A364BB3F92C3007EE903AD2
:103F9000F8EEE77A77EE277AFCEEE77A17EE903ABA
:103FA0009AB22F4B9A812E4B93ED0A7A2C4BDB8AD7
:103FB00007EE903AF8EEE77A27EE277A284BB3F926
:103FC0002E3007EE903AF8EEE77A77EE277AFCEE9D
:103FD000E77A17EE903A9AB2214BDA82204B93F8A7
:103FE00020305BB2002B2ADB1D4BC02283F820203F
:103FF0001B4B9A891A4B9A82194BDA8A184BDA832F
:104000001DE0174B93F820305BB2002B09DA144BFC
:1040100093F8203003F07F03DAB2114B83F82020AD
:104020000DE00F4B00229A820D4B0022DA830C4BDD
:104030004FF6FF729A810A4B4FF6FF72DA82084BF5
:1040400093F8203023F07F03DBB218460837BD46D3
:1040500080BD00BF000802402E0000202400002088
:104060001800002080B500AF0E2205490020FDF7A2
:10407000A3F800210E20FDF73FF800BF80BD00BF70
:104080003C00002080B582B000AF0023FB710E2001
:10409000FDF716F80346FB71FB79002B06D10E22C3
:1040A00005490020FDF769F8012300E000231846C8
:1040B0000837BD4680BD00BF3C0000200000000066
:1040C00080B58EB004AF002387F82730002387F82F
:1040D00027305F4B1A885E4B5B884FF6FF7100916B
:1040E00000210020FDF7C0FB002302931023019361
:1040F0004FF6FF7300934FF47843564A282105206A
:10410000FDF7D0FF00230293102301934FF6FF73B6
:1041100000934FF47843504A41210520FDF7C2FF38
:1041200000230293102301934FF6FF7300934FF483
:1041300078434A4A5A210520FDF7B4FF4FF47842EC
:1041400014211420FFF7A0FE454B002283F8202005
:10415000434B4FF000025A62322000F063FC404BA8
:104160005B68012098473E4B93F8203003F0C00372
:10417000402BF1D13A4B93F8203023F04003DAB2D0
:10418000374B83F8202097F82730354A92899B00D7
:1041900028333B4423F8282C97F82730304AD28A1A
:1041A0009B0028333B4423F8262C97F82730013313
:1041B00087F8273097F82730013B032BCCD801A292
:1041C00052F823F0D5410008F741000821420008C9
:1041D000654200084FF6FF7214211420FFF754FEC9
:1041E0001B4B1B88143B9BB24FF47842142118469A
:1041F000FFF74AFE19E3164B1B88143B9BB24FF6A0
:10420000FF7214211846FFF73FFE114B5B88143BE9
:104210009BB24FF4784219461420FFF735FE04E3B1
:104220000B4B5B88143B9BB24FF6FF721946142070
:10423000FFF72AFE064B1B88143B98B2044B5B88A1
:10424000143B9BB24FF478421946FFF71DFEECE297
:1042500034020020449C0008609C0008789C000800
:10426000180000203B881A46BB88D31A002BB8BF21
:104270005B423B627B881A46FB88D31A002BB8BF8F
:104280005B42FB613B6A03FB03F33B62FB6903FB9D
:1042900003F3FB613A6AFB6913441846FCF72AF9F9
:1042A00002460B4643EC102B05F0B6FB53EC102BEB
:1042B00010461946FCF748FC03467B833B891A46A7
:1042C000BB89D31A002BB8BF5B423B627B891A467D
:1042D000FB89D31A002BB8BF5B42FB613B6A03FB2F
:1042E00003F33B62FB6903FB03F3FB613A6AFB697F
:1042F00013441846FCF7FEF802460B4643EC102B1D
:1043000005F08AFB53EC102B10461946FCF71CFCF9
:1043100003463B837B8B07EE903AB8EE677A3B8B84
:1043200007EE903AF8EEE77AC7EE276A16EE900AA3
:10433000FCF702F902460B46C7E9042384A3D3E93C
:104340000023D7E90401FCF7C1FB0346002B0FD182
:1043500081A3D3E90023D7E90401FCF7D5FB034689
:10436000002B05D17B8B002B02D03B8B002B36D151
:10437000002387F827307A4B1B88143B98B2784B80
:104380005B88143B9BB24FF6FF721946FFF77CFD2A
:104390004FF4784214211420FFF776FD0023029396
:1043A000102301934FF6FF7300934FF478436D4A47
:1043B00028210520FDF776FE0023029310230193A8
:1043C0004FF6FF7300934FF47843674A3C21052072
:1043D000FDF768FE4FF47A7000F024FB25E23B887D
:1043E0001A463B89D31A002BB8BF5B423B627B88DD
:1043F0001A467B89D31A002BB8BF5B42FB613B6A2C
:1044000003FB03F33B62FB6903FB03F3FB613A6AC3
:10441000FB6913441846FCF76DF802460B4643EC63
:10442000102B05F0F9FA53EC102B10461946FCF747
:104430008BFB03467B83BB881A46BB89D31A002BB0
:10444000B8BF5B423B62FB881A46FB89D31A002B3C
:10445000B8BF5B42FB613B6A03FB03F33B62FB6952
:1044600003FB03F3FB613A6AFB6913441846FCF74C
:1044700041F802460B4643EC102B05F0CDFA53EC05
:10448000102B10461946FCF75FFB03463B837B8BE2
:1044900007EE903AB8EE677A3B8B07EE903AF8EE6B
:1044A000E77AC7EE276A16EE900AFCF745F802464F
:1044B0000B46C7E9042326A3D3E90023D7E9040167
:1044C000FCF704FB0346002B09D123A3D3E9002307
:1044D000D7E90401FCF718FB0346002B46D0002364
:1044E00087F827301E4B1B88143B98B21C4B5B8807
:1044F000143B9BB24FF6FF721946FFF7C5FC4FF411
:10450000784214211420FFF7BFFC002302931023EC
:1045100001934FF6FF7300934FF47843114A28211B
:104520000520FDF7BFFD00230293102301934FF6F2
:10453000FF7300934FF478430B4A3C210520FDF7AD
:10454000B1FD4FF47A7000F06DFA6EE1AFF30080C8
:10455000666666666666EE3FCDCCCCCCCCCCF03FD2
:10456000340200208C9C0008AC9C0008BB881A46D2
:104570003B89D31A002BB8BF5B423B62FB881A46CB
:104580007B89D31A002BB8BF5B42FB613B6A03FBFC
:1045900003F33B62FB6903FB03F3FB613A6AFB69CC
:1045A00013441846FBF7A6FF02460B4643EC102BBC
:1045B00005F032FA53EC102B10461946FCF7C4FAFA
:1045C00003467B833B881A46BB89D31A002BB8BFAE
:1045D0005B423B627B881A46FB89D31A002BB8BF2B
:1045E0005B42FB613B6A03FB03F33B62FB6903FB3A
:1045F00003F3FB613A6AFB6913441846FBF77AFF41
:1046000002460B4643EC102B05F006FA53EC102B38
:1046100010461946FCF798FA03463B837B8B07EE5E
:10462000903AB8EE677A3B8B07EE903AF8EEE77A6D
:10463000C7EE276A16EE900AFBF77EFF02460B468E
:10464000C7E9042383A3D3E90023D7E90401FCF7D6
:104650003DFA0346002B09D180A3D3E90023D7E913
:104660000401FCF751FA0346002B36D0002387F8EB
:104670002730714B1B88143B98B26F4B5B88143BFF
:104680009BB24FF6FF721946FFF7FEFB4FF47842DC
:1046900014211420FFF7F8FB002302931023019349
:1046A0004FF6FF7300934FF47843644A28210520A6
:1046B000FDF7F8FC00230293102301934FF6FF73DC
:1046C00000934FF478435E4A3C210520FDF7EAFC55
:1046D0004FF47A7000F0A6F9A7E0574B1B88283BEF
:1046E00007EE903AF8EEE76ABB881A463B88D31A81
:1046F00007EE903AB8EEE77AC6EE877A514BC3EDF3
:10470000097A4D4B1B8807EE903AB8EEE77A4D4B8D
:10471000D3ED096ABB881A463B88134407EE903AEA
:10472000F8EEE77A66EEA77A37EE677AF0EE006A7F
:10473000C7EE267AFDEEE77A17EE903A1AB2414BB1
:104740009A853D4B5B88283B07EE903AF8EEE76A86
:104750007B891A467B88D31A07EE903AB8EEE77A3F
:10476000C6EE877A374BC3ED0A7A334B5B8807EE88
:10477000903AB8EEE77A334BD3ED0A6A7B891A4652
:104780007B88134407EE903AF8EEE77A66EEA77A54
:1047900037EE677AF0EE006AC7EE267AFDEEE77A2A
:1047A00017EE903A1AB2274BDA85234B1B88143B3D
:1047B00098B2214B5B88143B9BB24FF6FF721946AF
:1047C000FFF762FB00230293102301934FF6FF7360
:1047D00000934FF478431C4A28210520FDF762FC22
:1047E00000230293102301934FF6FF7300934FF4BD
:1047F0007843164A3C210520FDF754FC4FF47A70AB
:1048000000F010F900230293102301934FF6FF7379
:1048100000934FF478430E4A28210520FDF742FC0F
:10482000FFF720FCFFF72EFC00E095E42837BD469B
:1048300080BD00BFAFF30080340200208C9C0008D4
:10484000AC9C000818000020CC9C0008EC9C0008E0
:104850000C9D0008666666666666EE3FCDCCCCCCE5
:10486000CCCCF03F80B500AF04490548FFF788FA8B
:10487000FCF720FCFFF706FC00BF80BD2E000020E7
:104880002400002080B500AF024B5B6800209847F1
:1048900000BF80BD1800002080B500AF4FF48071CC
:1048A000054801F0DDF80346002B0CBF012300236F
:1048B000DBB2184680BD00BF0008024080B400AFE4
:1048C000034B9B891846BD465DF8047B704700BFCB
:1048D0001800002080B400AF034BDB8A1846BD46A9
:1048E0005DF8047B704700BF18000020DFF834D06B
:1048F0000D480E490E4A002302E0D458C450043338
:10490000C4188C42F9D30B4A0B4C002301E013600E
:104910000432A242FBD3FEF785FF04F037FAFDF71D
:10492000B1FC70470000022000000020C8000020F9
:10493000B4CD0008C8000020B4140020FEE7000039
:1049400080B500AF0E4B1B680D4A43F40073136033
:104950000B4B1B680A4A43F480631360084B1B68C7
:10496000074A43F480731360032000F0B1FB0F206B
:1049700000F008F8FEF724FE0023184680BD00BFB3
:10498000003C024080B582B000AF7860124B1A68DC
:10499000124B1B7819464FF47A73B3FBF1F3B2FB59
:1049A000F3F3184600F0C9FB0346002B01D00123A6
:1049B0000EE07B680F2B0AD8002279684FF0FF3099
:1049C00000F091FB064A7B681360002300E001239E
:1049D00018460837BD4680BD140000205400002052
:1049E0005000002080B400AF064B1B781A46064BDF
:1049F0001B681344044A136000BFBD465DF8047B86
:104A0000704700BF540000206413002080B400AF42
:104A1000034B1B681846BD465DF8047B704700BF1A
:104A20006413002080B584B000AF7860FFF7EEFF1C
:104A3000B8607B68FB60FB68B3F1FF3F05D00A4BB1
:104A40001B781A46FB681344FB6000BFFFF7DEFFCC
:104A50000246BB68D31AFA689A42F7D800BF00BF73
:104A60001037BD4680BD00BF5400002080B584B023
:104A700000AF78600023FB737B68002B01D101231A
:104A800033E07B681B6C002B09D17868FCF77EFA59
:104A90007B6800225A647B68002283F83C207B6894
:104AA0001B6C03F01003002B18D17B681B6C23F4E4
:104AB000885323F0020343F002027B681A6478688B
:104AC00000F03AF97B6800225A647B681B6C23F083
:104AD000030343F001027B681A6401E00123FB73C6
:104AE0007B68002283F83C20FB7B18461037BD46CC
:104AF00080BD000080B485B000AF786039600023CD
:104B0000BB607B6893F83C30012B01D1022305E1A7
:104B10007B68012283F83C203B681B68092B25D960
:104B20007B681B68D9683B681B689BB21A461346B2
:104B30005B0013441E3B072202FA03F3DA437B684F
:104B40001B680A40DA607B681B68D9683B689A6812
:104B50003B681B689BB2184603465B0003441E3B40
:104B60009A407B681B680A43DA6022E07B681B6816
:104B700019693B681B689BB21A4613465B001344D5
:104B8000072202FA03F3DA437B681B680A401A61C2
:104B90007B681B6819693B689A683B681B689BB215
:104BA000184603465B0003449A407B681B680A432F
:104BB0001A613B685B68062B24D87B681B68596BBD
:104BC0003B685A6813469B001344053B1F2202FAB8
:104BD00003F3DA437B681B680A405A637B681B68EF
:104BE000596B3B681B689BB218463B685A68134672
:104BF0009B001344053B00FA03F27B681B680A43E1
:104C00005A634CE03B685B680C2B24D87B681B68BC
:104C1000196B3B685A6813469B001344233B1F22C1
:104C200002FA03F3DA437B681B680A401A637B6865
:104C30001B68196B3B681B689BB218463B685A6837
:104C400013469B001344233B00FA03F27B681B6866
:104C50000A431A6323E07B681B68D96A3B685A6879
:104C600013469B001344413B1F2202FA03F3DA432D
:104C70007B681B680A40DA627B681B68D96A3B68FC
:104C80001B689BB218463B685A6813469B00134446
:104C9000413B00FA03F27B681B680A43DA62224B4D
:104CA000FB607B681B68214A934209D13B681B6803
:104CB000122B05D1FB685B6843F48002FB685A60E5
:104CC0007B681B68194A934223D13B681B68102BF1
:104CD00003D03B681B68112B1BD1FB685B6843F456
:104CE0000002FB685A603B681B68102B11D1104B07
:104CF0001B68104AA2FB03239A0C13469B00134423
:104D00005B00BB6002E0BB68013BBB60BB68002B83
:104D1000F9D17B68002283F83C2000231846143721
:104D2000BD465DF8047B7047002301400020014030
:104D30001400002083DE1B4380B485B000AF786090
:104D4000794BFB60FB685B6823F44032FB685A6078
:104D5000FB685A687B685B681A43FB685A607B682B
:104D60001B685A687B681B6822F480725A607B68F3
:104D70001B6859687B681B691A027B681B680A43B9
:104D80005A607B681B685A687B681B6822F0407217
:104D90005A607B681B6859687B689A687B681B68E7
:104DA0000A435A607B681B689A687B681B6822F418
:104DB00000629A607B681B6899687B68DA687B6828
:104DC0001B680A439A607B689B6A584A934222D0C8
:104DD0007B681B689A687B681B6822F070629A6027
:104DE0007B681B6899687B689A6A7B681B680A43C2
:104DF0009A607B681B689A687B681B6822F0405247
:104E00009A607B681B6899687B68DA6A7B681B68B4
:104E10000A439A600FE07B681B689A687B681B688E
:104E200022F070629A607B681B689A687B681B68D6
:104E300022F040529A607B681B689A687B681B6806
:104E400022F002029A607B681B6899687B681B7E6F
:104E50005A007B681B680A439A607B6893F820308D
:104E6000002B1BD07B681B685A687B681B6842F468
:104E700000625A607B681B685A687B681B6822F472
:104E800060425A607B681B6859687B685B6A013BBB
:104E90005A037B681B680A435A6007E07B681B68FB
:104EA0005A687B681B6822F400625A607B681B6842
:104EB000DA6A7B681B6822F47002DA627B681B681E
:104EC000D96A7B68DB69013B1A057B681B680A436A
:104ED000DA627B681B689A687B681B6822F4007240
:104EE0009A607B681B6899687B6893F830305A0237
:104EF0007B681B680A439A607B681B689A687B68BA
:104F00001B6822F480629A607B681B6899687B68E2
:104F10005B699A027B681B680A439A6000BF14377A
:104F2000BD465DF8047B7047002301400100000F7F
:104F300080B485B000AF78607B6803F00703FB6046
:104F40000C4BDB68BB60BA684FF6FF031340BB60D5
:104F5000FB681A02BB68134343F0BF6343F400339A
:104F6000BB60044ABB68D36000BF1437BD465DF820
:104F7000047B704700ED00E080B400AF044BDB68B9
:104F80001B0A03F007031846BD465DF8047B704713
:104F900000ED00E080B483B000AF0346FB7197F9E9
:104FA0000730002B0BDBFB7903F01F02074997F951
:104FB00007305B09012000FA02F241F8232000BF0C
:104FC0000C37BD465DF8047B704700BF00E100E090
:104FD00080B483B000AF03463960FB7197F90730A6
:104FE000002B0ADB3B68DAB20C4997F90730120153
:104FF000D2B20B4483F800230AE03B68DAB20849D6
:10500000FB7903F00F03043B1201D2B20B441A7672
:1050100000BF0C37BD465DF8047B704700E100E03F
:1050200000ED00E080B489B000AFF860B9607A604C
:10503000FB6803F00703FB61FB69C3F10703042B63
:1050400028BF0423BB61FB690433062B02D9FB692B
:10505000033B00E000237B614FF0FF32BB6902FAA3
:1050600003F3DA43BB681A407B699A404FF0FF3183
:105070007B6901FA03F3D9437B680B40134318465D
:105080002437BD465DF8047B7047000080B582B0D0
:1050900000AF78607B68013BB3F1807F01D30123CF
:1050A0000FE00A4A7B68013B53600F214FF0FF304D
:1050B000FFF78EFF054B00229A60044B07221A600F
:1050C000002318460837BD4680BD00BF10E000E051
:1050D00080B582B000AF78607868FFF729FF00BF25
:1050E0000837BD4680BD80B586B000AF0346B960C5
:1050F0007A60FB7300237B61FFF73EFF78617A687B
:10510000B9687869FFF78EFF024697F90F301146AC
:105110001846FFF75DFF00BF1837BD4680BD80B55C
:1051200082B000AF0346FB7197F907301846FFF7CE
:1051300031FF00BF0837BD4680BD80B582B000AFEB
:1051400078607868FFF7A2FF034618460837BD4627
:1051500080BD000080B586B000AF786000237B6121
:10516000FFF754FC38617B68002B01D1012399E0E3
:105170007B68022283F835207B68002283F8342084
:105180007B681B681A687B681B6822F001021A6042
:105190000FE0FFF73BFC02463B69D31A052B08D909
:1051A0007B6820225A657B68032283F8352003231D
:1051B00078E07B681B681B6803F00103002BE8D1D3
:1051C0007B681B681B687B617A69384B13407B6185
:1051D0007B685A687B689B681A437B68DB681A4364
:1051E0007B681B691A437B685B691A437B689B6910
:1051F0001A437B68DB691A437B681B6A13437A692D
:1052000013437B617B685B6A042B07D17B68DA6A96
:105210007B681B6B13437A6913437B617B681B6854
:105220007A691A607B681B685B697B617B6923F024
:1052300007037B617B685B6A7A6913437B617B68E8
:105240005B6A042B17D17B689B6A7A6913437B6185
:105250007B68DB6A002B0ED0786800F0E9F9034622
:10526000002B08D07B6840225A657B68012283F8B6
:105270003520012316E07B681B687A695A617868DB
:1052800000F0A0F90346FB607B68DB6D3F229A408B
:10529000FB689A607B6800225A657B68012283F86C
:1052A0003520002318461837BD4680BD3F8010F0DA
:1052B00080B586B000AF78600023BB608E4B1B6862
:1052C0008E4AA2FB03239B0A7B617B689B6D3B613B
:1052D0003B691B68FB607B68DB6D08229A40FB68BA
:1052E0001340002B1AD07B681B681B6803F0040373
:1052F000002B13D07B681B681A687B681B6822F040
:1053000004021A607B68DB6D08229A403B699A6050
:105310007B685B6D43F001027B685A657B68DB6DDF
:1053200001229A40FB681340002B12D07B681B6857
:105330005B6903F08003002B0BD07B68DB6D0122DF
:105340009A403B699A607B685B6D43F002027B6820
:105350005A657B68DB6D04229A40FB681340002B82
:1053600012D07B681B681B6803F00203002B0BD074
:105370007B68DB6D04229A403B699A607B685B6DB9
:1053800043F004027B685A657B68DB6D10229A400B
:10539000FB681340002B43D07B681B681B6803F03D
:1053A0000803002B3CD07B68DB6D10229A403B69E0
:1053B0009A607B681B681B6803F48023002B18D05D
:1053C0007B681B681B6803F40023002B08D17B68F3
:1053D0001B6C002B24D07B681B6C786898471FE0FF
:1053E0007B689B6C002B1BD07B689B6C7868984714
:1053F00016E07B681B681B6803F48073002B07D1E1
:105400007B681B681A687B681B6822F008021A60B8
:105410007B681B6C002B03D07B681B6C78689847FB
:105420007B68DB6D20229A40FB681340002B00F064
:105430008F807B681B681B6803F01003002B00F053
:1054400087807B68DB6D20229A403B699A607B688D
:1054500093F83530DBB2052B36D17B681B681A68B0
:105460007B681B6822F016021A607B681B685A6909
:105470007B681B6822F080025A617B681B6C002BE2
:1054800003D17B689B6C002B07D07B681B681A6874
:105490007B681B6822F008021A607B68DB6D3F2284
:1054A0009A403B699A607B68012283F835207B68CB
:1054B000002283F834207B681B6D002B7ED07B6834
:1054C0001B6D7868984779E07B681B681B6803F45C
:1054D0008023002B1DD07B681B681B6803F400230E
:1054E000002B0DD17B685B6C002B31D07B685B6C33
:1054F000786898472CE000BF14000020B5814E1B4F
:105500007B68DB6B002B23D07B68DB6B786898476C
:105510001EE07B681B681B6803F48073002B0FD1AF
:105520007B681B681A687B681B6822F010021A608F
:105530007B68012283F835207B68002283F83420C1
:105540007B68DB6B002B03D07B68DB6B786898474C
:105550007B685B6D002B32D07B685B6D03F00103D1
:10556000002B22D07B68052283F835207B681B68DE
:105570001A687B681B6822F001021A60BB6801335D
:10558000BB607A699A4207D37B681B681B6803F08B
:105590000103002BF2D100E000BF7B68012283F8F9
:1055A00035207B68002283F834207B68DB6C002B7D
:1055B00005D07B68DB6C7868984700E000BF18373F
:1055C000BD4680BD80B485B000AF78607B681B6845
:1055D000DBB2103B144AA2FB03231B09FB60134AF6
:1055E000FB6813441B781A467B68DA65FB68032B5B
:1055F00009D97B681B6823F47F7323F003031A1D0A
:105600007B689A6507E07B681B6823F47F7323F04F
:1056100003037A6893657B689B6D18461437BD4613
:105620005DF8047B704700BFABAAAAAABCCC0008F7
:1056300080B485B000AF78600023FB737B689B6A01
:10564000BB607B689B69002B1FD1BB68032B56D8BE
:1056500001A252F823F000BF695600087B560008EB
:1056600069560008FF5600087B68DB6A03F0807308
:10567000002B46D00123FB7343E07B68DB6AB3F168
:10568000C07F40D10123FB733DE07B689B69B3F58C
:10569000005F21D1BB68032B37D801A252F823F059
:1056A000B1560008B7560008B1560008C9560008A0
:1056B0000123FB7330E07B68DB6A03F08073002B0F
:1056C00025D00123FB7322E07B68DB6AB3F1C07F46
:1056D0001FD10123FB731CE0BB68022B03D9BB68FD
:1056E000032B03D018E00123FB7315E07B68DB6A12
:1056F00003F08073002B0ED00123FB730BE000BF7F
:105700000AE000BF08E000BF06E000BF04E000BF01
:1057100002E000BF00E000BFFB7B18461437BD4627
:105720005DF8047B704700BF80B489B000AF78603B
:10573000396000237B6100233B610023BB610023B0
:10574000FB616BE10122FB6902FA03F37B613B68B9
:105750001B687A6913403B613A697B699A4240F061
:105760005A813B685B6803F00303012B05D03B685B
:105770005B6803F00303022B30D17B689B68BB613D
:10578000FB695B00032202FA03F3DB43BA691340AF
:10579000BB613B68DA68FB695B0002FA03F3BA6934
:1057A0001343BB617B68BA699A607B685B68BB61C5
:1057B0000122FB6902FA03F3DB43BA691340BB61C0
:1057C0003B685B681B0903F00102FB6902FA03F303
:1057D000BA691343BB617B68BA695A603B685B680E
:1057E00003F00303032B17D07B68DB68BB61FB6905
:1057F0005B00032202FA03F3DB43BA691340BB6187
:105800003B689A68FB695B0002FA03F3BA691343C9
:10581000BB617B68BA69DA603B685B6803F00303CD
:10582000022B23D1FB69DA087B68083253F8223057
:10583000BB61FB6903F007039B000F2202FA03F32D
:10584000DB43BA691340BB613B681A69FB6903F02B
:1058500007039B0002FA03F3BA691343BB61FB69B8
:10586000DA087B680832B96943F822107B681B6844
:10587000BB61FB695B00032202FA03F3DB43BA69F5
:105880001340BB613B685B6803F00302FB695B008C
:1058900002FA03F3BA691343BB617B68BA691A6001
:1058A0003B685B6803F44033002B00F0B4800023B6
:1058B000FB60604B5B6C5F4A43F4804353645D4B19
:1058C0005B6C03F48043FB60FB685B4AFB699B08ED
:1058D000023352F82330BB61FB6903F003039B00E2
:1058E0000F2202FA03F3DB43BA691340BB617B6802
:1058F000524A93422BD07B68514A934225D07B6811
:10590000504A93421FD07B684F4A934219D07B681C
:105910004E4A934213D07B684D4A93420DD07B6828
:105920004C4A934207D07B684B4A934201D10723EC
:105930000EE008230CE006230AE0052308E0042318
:1059400006E0032304E0022302E0012300E0002339
:10595000FA6902F0030292009340BA691343BB61F3
:105960003549FB699B080233BA6941F823203B4B58
:105970001B68BB613B69DB43BA691340BB613B6891
:105980005B6803F48033002B03D0BA693B6913438F
:10599000BB61324ABB691360304B5B68BB613B69DA
:1059A000DB43BA691340BB613B685B6803F40033B7
:1059B000002B03D0BA693B691343BB61274ABB691B
:1059C0005360264B9B68BB613B69DB43BA6913405C
:1059D000BB613B685B6803F48013002B03D0BA699A
:1059E0003B691343BB611D4ABB6993601B4BDB687A
:1059F000BB613B69DB43BA691340BB613B685B68D1
:105A000003F40013002B03D0BA693B691343BB6155
:105A1000124ABB69D360FB690133FB61FB690F2B41
:105A20007FF690AE00BF00BF2437BD465DF8047B13
:105A3000704700BF003802400038014000000240BB
:105A40000004024000080240000C02400010024026
:105A50000014024000180240001C0240003C0140BB
:105A600080B485B000AF78600B467B807B681A6994
:105A70007B881340002B02D00123FB7301E000233D
:105A8000FB73FB7B18461437BD465DF8047B7047FB
:105A900080B483B000AF78600B467B8013467B7088
:105AA0007B78002B03D07A887B689A6103E07B883F
:105AB0001A047B689A6100BF0C37BD465DF8047B11
:105AC0007047000080B584B000AF78607B68002B21
:105AD00001D101232BE17B6893F83D30DBB2002B31
